:100000000C9463000C948B000C948B000C948B006C
:100010000C948B000C948B000C948B000C948B0034
:100020000C948B000C948B000C948B000C94790432
:100030000C948B000C948B000C948B000C948B0014
:100040000C942F040C948B000C94FD030C94D70398
:100050000C948B000C948B000C948B000C948B00F4
:100060000C948B000C948B000000000024002700EF
:100070002A0000000000250028002B0000000008D6
:10008000000201000003040700000000000000005F
:1000900000000000230026002900040404040404D6
:1000A0000404020202020202030303030303010227
:1000B00004081020408001020408102001020408F6
:1000C0001020F606C20911241FBECFEFD8E0DEBF14
:1000D000CDBF22E0A8E2B1E001C01D92A439B20771
:1000E000E1F711E0A0E0B1E0EEE5F1E202C0059039
:1000F0000D92A832B107D9F710E0C2E6D0E004C0F3
:100100002197FE010E94090CC136D107C9F70E9450
:10011000F5070C94A2100C940000CF92DF92EF929E
:10012000FF92CF93DF93B0918402A0E08111AB2FB7
:100130008091850290E0880F991FAC0140575F4F76
:10014000C0908A02D0908B02E0908C02F0908D02D9
:1001500030E020E0FA01C591D491E881B90190E046
:1001600080E0EB23EA130AC02F5F3F4F6C157D053B
:100170008E059F0578F36FEF7FEFCB01DF91CF9175
:10018000FF90EF90DF90CF900895AF92BF92CF9203
:10019000DF92EF92FF920F931F93CF93DF936C0147
:1001A0007B018B01040F151FEB015E01AE18BF0828
:1001B000C017D10759F06991D601ED91FC910190DA
:1001C000F081E02DC6010995892B79F7C501DF91F2
:1001D000CF911F910F91FF90EF90DF90CF90BF9044
:1001E000AF900895FC01538D448D252F30E0842F6E
:1001F00090E0821B930B541710F0CF96089501974F
:100200000895FC01918D828D981761F0A28DAE0F3B
:10021000BF2FB11D5D968C91928D9F5F9F73928FC2
:1002200090E008958FEF9FEF0895FC01918D828DEE
:10023000981731F0828DE80FF11D858D90E00895BB
:100240008FEF9FEF0895FC01918D228D892F90E013
:10025000805C9F4F821B91098F73992708958BECC7
:1002600091E00E94230121E0892B09F420E0822FF4
:10027000089580E090E0892B29F00E942F018111E0
:100280000C9400000895FC01A48DA80FB92FB11D96
:10029000A35ABF4F2C91848D90E001968F739927BC
:1002A000848FA689B7892C93A089B1898C9183709A
:1002B00080648C93938D848D981306C00288F38993
:1002C000E02D80818F7D80830895EF92FF920F93C0
:1002D0001F93CF93DF93EC0181E0888F9B8D8C8DF2
:1002E00098131AC0E889F989808185FF15C09FB7E6
:1002F000F894EE89FF896083E889F98980818370A9
:10030000806480839FBF81E090E0DF91CF911F9157
:100310000F91FF90EF900895F62E0B8D10E00F5F78
:100320001F4F0F731127E02E8C8D8E110CC00FB64E
:1003300007FCFACFE889F989808185FFF5CFCE01E6
:100340000E944301F1CFEB8DEC0FFD2FF11DE35A1D
:10035000FF4FF0829FB7F8940B8FEA89FB89808169
:100360008062CFCFCF93DF93EC01888D8823B9F0E3
:10037000AA89BB89E889F9898C9185FD03C08081B0
:1003800086FD0DC00FB607FCF7CF8C9185FFF2CF2D
:10039000808185FFEDCFCE010E944301E9CFDF913F
:1003A000CF91089590E0FC01E458FF4F2491FC01A7
:1003B000E255FF4F3491FC01E656FF4FE491EE23E6
:1003C000C9F0222339F0233001F1A8F4213019F1CA
:1003D000223029F1F0E0EE0FFF1FEE58FF4FA591FC
:1003E000B4918FB7F894EC91611126C030953E23FB
:1003F0003C938FBF08952730A9F02830C9F02430EE
:1004000049F7809180008F7D03C0809180008F77B5
:1004100080938000DFCF84B58F7784BDDBCF84B538
:100420008F7DFBCF8091B0008F778093B000D2CFCB
:100430008091B0008F7DF9CF3E2BDACFCF93DF9341
:1004400090E0FC01E255FF4F249186569F4FFC013E
:1004500084918823D1F090E0880F991FFC01E8591E
:10046000FF4FA591B491FC01EE58FF4FC591D49177
:10047000623071F49FB7F8943C91822F809583236A
:100480008C93E8812E2B28839FBFDF91CF91089515
:100490008FB7F894EC912E2B2C938FBFF6CF8E3024
:1004A00008F08E508770806480937C0080917A0081
:1004B000806480937A0080917A0086FDFCCF8091E1
:1004C00078009091790008953FB7F89480912901C0
:1004D00090912A01A0912B01B0912C0126B5A89BE7
:1004E00005C02F3F19F00196A11DB11D3FBFBA2FC6
:1004F000A92F982F8827BC01CD01620F711D811D86
:10050000911D42E0660F771F881F991F4A95D1F70A
:1005100008958F929F92AF92BF92CF92DF92EF9207
:10052000FF924B015C010E9464026B017C010E94FE
:1005300064026C197D098E099F09683E734081052C
:100540009105A8F321E0821A9108A108B10888EE6C
:10055000C80E83E0D81EE11CF11C81149104A10493
:10056000B10429F7FF90EF90DF90CF90BF90AF904C
:100570009F908F900895CF92DF92EF92FF920F930A
:100580001F93CF93DF93CDB7DEB7C054D1400FB6E2
:10059000F894DEBF0FBECDBF2FB7F8948091C7018E
:1005A0009091C801A091C901B091CA012FBF40919B
:1005B00086025091870260918802709189028C01B5
:1005C0009D01041B150B260B370BB901A801403DFB
:1005D00057406105710590F480918E02C05CDE4F3A
:1005E0000FB6F894DEBF0FBECDBFDF91CF911F9144
:1005F0000F91FF90EF90DF90CF9008958093860247
:1006000090938702A0938802B0938902109281028E
:100610001092800210927F0210927E0210927D0250
:1006200062E0809182020E941E0261E070E080E040
:1006300090E00E94890261E0809182020E941E0285
:1006400060E0809182020E94D201809183028551F4
:10065000823020F58BE291E10197F1F762E0809121
:1006600082020E941E0280918F0290E082309105EA
:1006700038F0880F991F880F991F05970197F1F798
:10068000F89480E00E948D006F3F7F4F8F4F9F4F07
:1006900061F410928E02789480E0A0CF64E170E063
:1006A00080E090E00E948902D9CF81E00E948D0015
:1006B0006F3F7F4F8F4F9F4F61F38E010F5F1F4F33
:1006C0006E018FEBC81A8EEFD80A780180E00E9485
:1006D0008D00F701608371838283938381E00E94A0
:1006E0008D00F7016483758386839783F8E0EF0EAE
:1006F000F11CEC14FD0451F7789430E020E0F8018F
:10070000C080D180E280F380448155816681778109
:10071000FFEFCF16DF06EF06FF0631F04F3F8FEFFA
:1007200058076807780719F410928E02B5CFF901BF
:1007300083E0F595E7958A95E1F7E358FD4F8081D1
:10074000880FC416D506E606F70610F180832F5FE2
:100750003F4F085F1F4F2832310589F640918102D3
:1007600020917D0280917E02280F3327331F8091D4
:100770007F02280F311D80918002820F932F911DDF
:1007800099274817190681F681E080938E0226CFBB
:100790008160DCCFFC0101900020E9F73197AF01C7
:1007A000481B590BBC018BEC91E00C94C5001F92C7
:1007B0000F920FB60F9211242F933F934F935F9395
:1007C0006F937F938F939F93AF93BF93EF93FF9319
:1007D0008BEC91E00E944301FF91EF91BF91AF91AB
:1007E0009F918F917F916F915F914F913F912F9149
:1007F0000F900FBE0F901F9018951F920F920FB67B
:100800000F9211242F938F939F93EF93FF93E09177
:10081000DB01F091DC018081E091E101F091E201E6
:1008200082FD1BC090818091E4018F5F8F732091C6
:10083000E501821741F0E091E401F0E0E553FE4F5D
:10084000958F8093E401FF91EF919F918F912F916C
:100850000F900FBE0F901F9018958081F4CF1F92BC
:100860000F920FB60F9211242F933F938F939F9364
:10087000AF93BF938091C7019091C801A091C90126
:10088000B091CA013091280123E0230F2D3758F58C
:100890000196A11DB11D209328018093C70190935B
:1008A000C801A093C901B093CA0180912901909118
:1008B0002A01A0912B01B0912C010196A11DB11D1F
:1008C0008093290190932A01A0932B01B0932C01CE
:1008D000BF91AF919F918F913F912F910F900FBE3C
:1008E0000F901F90189526E8230F0296A11DB11DA9
:1008F000D2CF1F920F920FB60F9211242F923F92D8
:100900004F925F926F927F928F929F92AF92BF921F
:10091000CF92DF92EF92FF920F931F932F933F930B
:100920004F935F936F937F938F939F93AF93BF93F7
:10093000EF93FF93CF93DF9300D000D0CDB7DEB716
:10094000F89420916802309169023A832983F12C4E
:10095000E12CD12CC12CA981BA8111968C911197CF
:100960008C151D04C1F0BCF01296ED91FC91EE0DBA
:10097000FF1DFC83EB8380810E944F02AB81BC8111
:1009800019969C938E931897BFEFCB1ADB0AECE372
:10099000EE0EF11CE0CF312C212C10E000E050E6EF
:1009A000852E5AEE952EA12CB12CA981BA811196D3
:1009B0008C9111978017110609F00CF4EBC1129677
:1009C000ED91FC91E20DF31DFC83EB8340A851A84F
:1009D00062A873A8808D918DA28DB38D480E591E8B
:1009E0006A1E7B1E40AA51AA62AA73AA84899589AD
:1009F000A689B7897201E81AF90A868597850C9746
:100A0000978786878685978597FDC3C08685978556
:100A1000873F99400CF0C0C0AB81BC811E968D9180
:100A20009C91EB81FC819787868780859185C0ACFE
:100A3000D1AC8C159D05CCF48285938565E070E082
:100A40000E94B40BCB01880F991F680F791F6E1598
:100A50007F055CF42085318586A997A92817390779
:100A600024F48085918597AB86ABAB81BC811896C9
:100A70008D919C911997C816D9069CF418962D91C2
:100A80003C911997D4968D919C91D5978217930795
:100A900044F418968D919C911997D5969C938E93BA
:100AA000D497BBEFEB16F1040CF4ACC0EB81FC81E6
:100AB00080859185C816D9060CF0A4C08485811163
:100AC000A1C08285938565E070E00E94B40BCB01E4
:100AD000880F991F680F791F6E157F050CF092C063
:100AE00021E0248784899589A689B789F201E81BCA
:100AF000F90BAB81BC811B96FC93EE931A97FD0119
:100B0000448A558A668A778A83AD882371F013AE4A
:100B10007C96CD01C096AB81BC811A962D913C91FB
:100B2000219331938E179F07B1F7EB81FC8182AD42
:100B30008823A9F112AE21E023AFAB81BC811296CC
:100B40008D919C91139797FD08C01C962C9161E0A4
:100B5000211101C060E00E94D201EB81FC81E480A0
:100B6000F580F7FCEDC0868597856AE070E00E940D
:100B7000B40B7C836B8361E08E2D0E941E022B815F
:100B80003C81232B09F0ACC060E08E2D0E94D20185
:100B9000D7C090E080E045CF86EF99E042CFEB816F
:100BA000FC817C964B815C81425D5F4F30E020E0B0
:100BB0008281938181939193280F391F4E175F078C
:100BC000B9F7AB81BC811A968D919C911B979F962A
:100BD0009C938E939E97820F931F6AE070E00E9411
:100BE000A00B9B0150E040E0C501B4010E94C80B7E
:100BF000EB81FC813783268321E0258786EF99E00E
:100C000097878687AB81BC8118968D919C911997A7
:100C10008C159D053CF51C968C911C97882311F131
:100C20001C961C921C97D6964D915C91D797D496A2
:100C30002D913C91D597241B350B53963C932E93C5
:100C4000529752968D919C9197FD01969595879517
:100C5000840F951FEB81FC8191AF80AF95AB84AB86
:100C600097AB86ABF5ECEF16F9E0FF060CF465CF19
:100C7000AB81BC8150968D919C915197D9969C9354
:100C80008E93D897E0E0F2E0D596FC93EE93D4975C
:100C9000D796FC93EE93D69754964D925D926D92B3
:100CA0007C925797E1E0DA96EC93DA97DB961C9208
:100CB000DB971D961C921D9717961C921E921697F5
:100CC00028E532E01B963C932E931A971C961C92B3
:100CD0001C9784E690E053969C938E9352972DCF69
:100CE0008B819C818F3F910511F461E04ECFF7011C
:100CF000FF27E458FF4FE491E33071F150F4E13005
:100D0000D1F0E23019F1AB81BC81A038B1056CF7AC
:100D10003BCFE73069F1E830A1F1E430A1F78091F1
:100D200080008062809380002B813C8130938B0017
:100D300020938A0005C084B5806884BD9B8197BDDF
:100D40000F5F1F4FBCE32B0E311C2FCE84B580628A
:100D500084BDAB81A8BDF4CF809180008068809372
:100D60008000EB81FC81F0938900E0938800E8CF5C
:100D70008091B00080688093B0003B813093B300D5
:100D8000DFCF8091B00080628093B0008B81809330
:100D9000B400D6CF81E0E981FA81808778940F9002
:100DA0000F900F900F90DF91CF91FF91EF91BF9136
:100DB000AF919F918F917F916F915F914F913F91F3
:100DC0002F911F910F91FF90EF90DF90CF90BF90E8
:100DD000AF909F908F907F906F905F904F903F90DB
:100DE0002F900F900FBE0F901F9018951092CE016C
:100DF0001092CD0188EE93E0A0E0B0E08093CF01A7
:100E00009093D001A093D101B093D2018AE091E0F8
:100E10009093CC018093CB0185EC90E09093D80126
:100E20008093D70184EC90E09093DA018093D9010C
:100E300080EC90E09093DC018093DB0181EC90E00A
:100E40009093DE018093DD0182EC90E09093E001CD
:100E50008093DF0186EC90E09093E2018093E101C2
:100E60001092E4011092E5011092E6011092E70160
:100E70008BE08093820280938302E9EBF0E0E491BF
:100E8000E0938402E5EAF0E0E491E093850280E8F3
:100E90009EE3A0E0B0E080938A0290938B02A0933F
:100EA0008C02B0938D021092780210927702109209
:100EB0007A021092790210927C0210927B0261E019
:100EC00070E090E080E00E94340D0097E9F090938C
:100ED00078028093770210927A0210927902209120
:100EE0007B0230917C02232B11F4FC0110821092C2
:100EF0007C0210927B026CE171E08091770290910C
:100F000078020E94FA0D14C08091770290917802C5
:100F1000009711F00E94AB0C1092780210927702A9
:100F200010927C0210927B0210927A021092790247
:100F3000109274021092730282E090E09093760215
:100F4000809375028AE692E090936902809368022A
:100F500081E080936B028CE390E00E940F0CFC0117
:100F60008EE090E0918380838FEF9FEF9383828365
:100F70009583848382E090E0A0E0B0E0808F918F41
:100F8000A28FB38FDF015C96CF01C0961D921D9298
:100F9000A817B907D9F71586178216828EEE92E048
:100FA00093878287148610AA11AA12AA13AA148AF8
:100FB000158A168A178A80E092E095AB84AB97ABCE
:100FC00086AB86E292E0918B808B91AF80AF84E616
:100FD00090E0938B828B81E082AF13AE17861686EA
:100FE000F0936D02E0936C020895789484B582606A
:100FF00084BD84B5816084BD85B5826085BD85B5BD
:10100000816085BD80916E00816080936E0010923A
:1010100081008091810082608093810080918100B5
:101020008160809381008091800081608093800046
:101030008091B10084608093B1008091B0008160A4
:101040008093B00080917A00846080937A008091D0
:101050007A00826080937A0080917A008160809328
:101060007A0080917A00806880937A001092C100A3
:10107000E091DB01F091DC0182E08083E091D70117
:10108000F091D8011082E091D901F091DA018FEC52
:1010900080831092E301E091DF01F091E00186E0AE
:1010A0008083E091DD01F091DE01808180618083A9
:1010B000E091DD01F091DE01808188608083E09124
:1010C000DD01F091DE01808180688083E091DD01A7
:1010D000F091DE0180818F7D8083E0916C02F09140
:1010E0006D028FE090E0918380838DE090E09383A8
:1010F0008283F89486E292E0918B808B91AF80AFEF
:10110000789410E000E0F12CE12C80916B028E15B8
:101110001F0441F13CF1C0916C02D0916D02C00FEF
:10112000D11F8A819B8197FD07C061E00E941E024A
:1011300060E08A810E94D2018C819D8197FD0CC064
:1011400061E00E941E02CC8161E08C2F0E941E0291
:1011500060E08C2F0E94D2012FEFE21AF20A045CA9
:101160001F4FD3CF0E9464026053784F8F4F9F4F21
:1011700060936E0270936F0280937002909371027D
:101180001092720210926A021092800010928200F5
:101190008CE0809381008CE790E0909389008093AD
:1011A000880082E080936F00789462E080918202F0
:1011B0000E941E022FB7F8948091C7019091C80138
:1011C000A091C901B091CA012FBF805D9740A109CC
:1011D000B1098093860290938702A0938802B0930E
:1011E000890287E380938F0221E9222E21E0322EAB
:1011F0003DE1832E31E0932ECFE5D1E002E211E014
:101200009DE2E92E91E0F92E80E0A82E80E0B82E34
:101210008EE00E944F02BC01990F880B990B0E942F
:10122000CD0920E030E040E85AE30E94080A20E0BF
:1012300030E04AEF53E40E94080A0E946A0B709360
:10124000C6016093C501E0916C02F0916D02C68009
:10125000D7800E94BB02882351F0809183028B309B
:1012600030F08D3048F08551823008F479C060E06C
:1012700070E080EC9FE71CC060917E0270E090E01F
:1012800080E00E94CD092DEC3CEC4CEC5DE30E942B
:10129000080A2B013C0160917D0270E090E080E043
:1012A0000E94CD099B01AC01C301B2010E94FE0A5C
:1012B0000E946A0B7093C4016093C301E0916C02B9
:1012C000F0916D02F8948585158678948823B1F1A4
:1012D000DF92CF9288E191E09F938F933F922F927C
:1012E0000E94010E81E991E00E94CA038091C6012B
:1012F0008F938091C5018F939F928F92DF93CF93AD
:101300000E94010E8FE591E00E94CA038091C40102
:101310008F938091C3018F931F930F93FF92EF924E
:101320000E94010E8DE291E00E94CA038DB79EB724
:1013300042960FB6F8949EBF0FBE8DBF68EE73E065
:1013400080E090E00E948902A114B10409F460CF0A
:101350000E942F01882309F457CF0E94000050CF2C
:1013600060917D0270917E0276276727762790E054
:1013700080E00E94CB092DEC3CEC4CEC5DE30E943C
:10138000080A96CF8091770290917802009711F029
:101390000C94AB0C0895E89409C097FB3EF490952B
:1013A0008095709561957F4F8F4F9F4F9923A9F03E
:1013B000F92F96E9BB279395F695879577956795CD
:1013C000B795F111F8CFFAF4BB0F11F460FF1BC011
:1013D0006F5F7F4F8F4F9F4F16C0882311F096E9A4
:1013E00011C0772321F09EE8872F762F05C0662352
:1013F00071F096E8862F70E060E02AF09A95660F0B
:10140000771F881FDAF7880F9695879597F90895C3
:101410000E941B0A0C948C0A0E947E0A38F00E94DB
:10142000850A20F0952311F00C94750A0C947B0A20
:1014300011240C94C00A0E949D0A70F3959FC1F379
:10144000950F50E0551F629FF001729FBB27F00D72
:10145000B11D639FAA27F00DB11DAA1F649F6627C7
:10146000B00DA11D661F829F2227B00DA11D621F16
:10147000739FB00DA11D621F839FA00D611D221FD0
:10148000749F3327A00D611D231F849F600D211DB4
:10149000822F762F6A2F11249F5750409AF0F1F037
:1014A00088234AF0EE0FFF1FBB1F661F771F881FA0
:1014B00091505040A9F79E3F510580F00C94750A59
:1014C0000C94C00A5F3FE4F3983ED4F38695779579
:1014D0006795B795F795E7959F5FC1F7FE2B880F46
:1014E000911D9695879597F9089597F99F6780E8DC
:1014F00070E060E008959FEF80EC089500240A9466
:101500001616170618060906089500240A941216DE
:101510001306140605060895092E0394000C11F411
:10152000882352F0BB0F40F4BF2B11F460FF04C0BE
:101530006F5F7F4F8F4F9F4F089557FD9058440F17
:10154000551F59F05F3F71F04795880F97FB991F22
:1015500061F09F3F79F087950895121613061406DF
:10156000551FF2CF4695F1DF08C01616170618066C
:10157000991FF1CF86957105610508940895E89447
:10158000BB2766277727CB0197F908952F923F92C3
:101590004F925F926F927F928F929F92AF92BF9283
:1015A000CF92DF92EF92FF920F931F93CF93DF932F
:1015B000CDB7DEB7CA1BDB0B0FB6F894DEBF0FBE8C
:1015C000CDBF09942A88398848885F846E847D84D9
:1015D0008C849B84AA84B984C884DF80EE80FD80DB
:1015E0000C811B81AA81B981CE0FD11D0FB6F89451
:1015F000DEBF0FBECDBFED0108955058BB27AA270F
:101600000E94150B0C948C0A0E947E0A38F00E94EE
:10161000850A20F039F49F3F19F426F40C947B0AD4
:101620000EF4E095E7FB0C94750AE92F0E949D0AE1
:1016300058F3BA17620773078407950720F079F407
:10164000A6F50C94BF0A0EF4E0950B2EBA2FA02D30
:101650000B01B90190010C01CA01A0011124FF275F
:10166000591B99F0593F50F4503E68F11A16F0405A
:10167000A22F232F342F4427585FF3CF4695379559
:101680002795A795F0405395C9F77EF41F16BA0B1E
:10169000620B730B840BBAF09150A1F0FF0FBB1FCC
:1016A000661F771F881FC2F70EC0BA0F621F731F15
:1016B000841F48F4879577956795B795F7959E3F72
:1016C00008F0B0CF9395880F08F09927EE0F979503
:1016D000879508950E94710B6894B1110C94C00A0B
:1016E00008950E94A50A88F09F5798F0B92F99276E
:1016F000B751B0F0E1F0660F771F881F991F1AF0FD
:10170000BA95C9F714C0B13091F00E94BF0AB1E098
:1017100008950C94BF0A672F782F8827B85F39F097
:10172000B93FCCF3869577956795B395D9F73EF495
:1017300090958095709561957F4F8F4F9F4F08953D
:10174000AA1BBB1B51E107C0AA1FBB1FA617B707E7
:1017500010F0A61BB70B881F991F5A95A9F7809503
:101760009095BC01CD01089597FB072E16F40094C7
:1017700007D077FD09D00E94A00B07FC05D03EF4EE
:10178000909581959F4F0895709561957F4F08952D
:10179000052E97FB1EF400940E94DF0B57FD07D027
:1017A0000E94E70B07FC03D04EF40C94DF0B50951E
:1017B0004095309521953F4F4F4F5F4F089590953D
:1017C0008095709561957F4F8F4F9F4F0895A1E24F
:1017D0001A2EAA1BBB1BFD010DC0AA1FBB1FEE1FAB
:1017E000FF1FA217B307E407F50720F0A21BB30BF6
:1017F000E40BF50B661F771F881F991F1A9469F772
:1018000060957095809590959B01AC01BD01CF01CD
:101810000895EE0FFF1F0590F491E02D09940F93AA
:101820001F93CF93DF938230910510F482E090E014
:10183000E0919202F091930230E020E0B0E0A0E06D
:10184000309799F42115310509F44AC0281B390B4A
:1018500024303105D8F58A819B816115710589F1A4
:10186000FB0193838283FE0111C04081518102817B
:10187000138148175907E0F04817590799F4109752
:1018800061F012960C93129713961C933296CF0127
:10189000DF91CF911F910F910895009392021093C1
:1018A0009302F4CF2115310551F04217530738F058
:1018B000A901DB019A01BD01DF01F801C1CFEF01F0
:1018C000F9CF9093930280939202CDCFFE01E20F65
:1018D000F31F819391932250310939832883D7CF05
:1018E0002091900230919102232B41F4209102012A
:1018F00030910301309391022093900220910001D6
:10190000309101012115310541F42DB73EB74091C9
:10191000040150910501241B350BE0919002F091D8
:101920009102E217F307A0F42E1B3F0B281739078B
:1019300078F0AC014E5F5F4F2417350748F04E0F2B
:101940005F1F5093910240939002819391939FCF98
:10195000F0E0E0E09CCFCF93DF930097E9F0FC014B
:10196000329713821282A0919202B0919302ED01FC
:1019700030E020E01097A1F420813181820F931F85
:1019800020919002309191022817390709F061C027
:10199000F0939102E0939002DF91CF910895EA01D4
:1019A000CE17DF07E8F54A815B819E01411551059D
:1019B000B1F7E901FB83EA8349915991C40FD51F1F
:1019C000EC17FD0761F4808191810296840F951FC9
:1019D000E90199838883828193819B838A83F0E0E4
:1019E000E0E012968D919C9113970097B9F52D9197
:1019F0003C911197CD010296820F931F2091900286
:101A0000309191022817390739F6309751F5109225
:101A1000930210929202B0939102A0939002BCCFD5
:101A2000D383C28340815181840F951FC817D90782
:101A300061F44E5F5F4F88819981480F591F518330
:101A400040838A819B81938382832115310509F02C
:101A5000B0CFF0939302E09392029ECFFD01DC01A0
:101A6000C0CF13821282D7CFB0E0A0E0EAE3FDE05E
:101A70000C94C80A8C01009751F4CB010E940F0C02
:101A80008C01C801CDB7DEB7E0E10C94E40AFC019B
:101A9000E60FF71F9C0122503109E217F30708F403
:101AA0009DC0D901CD91DC911197C617D70798F049
:101AB000C530D10530F3CE0104978617970708F398
:101AC000C61BD70B2297C193D1936D937C93CF0103
:101AD0000E94AB0CD6CF5B01AC1ABD0A4C018C0E38
:101AE0009D1EA0919202B0919302512C412CF12C99
:101AF000E12C109731F58091900290919102881518
:101B0000990509F05CC04616570608F058C0809148
:101B1000000190910101009741F48DB79EB740916B
:101B2000040150910501841B950BE817F90708F093
:101B300055C0F0939102E0939002F90171836083A4
:101B4000A0CF8D919C91119712966C90129713963D
:101B50007C901397A815B90559F56C0142E0C40EA5
:101B6000D11CCA14DB0420F1AC014A195B09DA016B
:101B70001296159780F06282738251834083D90157
:101B80006D937C93E114F10471F0D7011396FC93EB
:101B9000EE93129776CF22968C0F9D1FF9019183B9
:101BA0008083F301EFCFF0939302E093920269CF29
:101BB0004816590608F42C017D01D3019ACFCB01B8
:101BC0000E940F0C7C01009749F0AE01B8010E9401
:101BD000F10DC8010E94AB0C870153CF10E000E06B
:101BE00050CFFB01DC0102C001900D9241505040EA
:101BF000D8F70895FB01DC0101900D920020E1F778
:101C00000895AEE0B0E0E7E0FEE00C94D40A0D8960
:101C10001E8986E08C831A8309838FEF9FE79E835A
:101C20008D83AE01475E5F4F6F89788DCE0101963F
:101C30000E94240E2F813885020F131FF801108295
:101C40002E96E4E00C94F00AABE0B0E0EAE2FEE0AD
:101C50000C94C60A7C013B018A01FC0117821682A2
:101C6000838181FFC8C1CE0101965C01F701938198
:101C7000F30193FD859193FF81913F01882309F43E
:101C800053C1853239F493FD859193FF81913F01D2
:101C9000853229F4B70190E00E941410E7CF912C0F
:101CA000212C312CFFE1F31538F08B3211F190F437
:101CB000803209F1833229F137FC3CC020ED280F36
:101CC0002A3050F536FE20C08AE0989E200D11245F
:101CD000922E06C08D3291F0803371F7689430F8FF
:101CE000F30193FD859193FF81913F018111DACF3B
:101CF00021C0689431F8689432F8F2CF689433F8D0
:101D0000EFCF689434F8ECCFEAE02E9E200D11243A
:101D1000222E689435F8E4CF8E3229F436FC04C1C3
:101D2000689436F8DDCF8C3619F4689437F8D8CF3C
:101D30008836B1F2982F9F7D95549330E0F083362A
:101D4000A1F18337C1F1833509F063C02801F2E0C6
:101D50004F0E511CF801C080D180692D70E036FC17
:101D600002C06FEF7FEFC6010E94FE0F4C01689426
:101D700037F882010AC00C5F1F4FFFE3F983882404
:101D80008394912C6501E89437F833FE2DC0522CD2
:101D90008114910471F5552009F468CFB70180E2F0
:101DA00090E00E9414105A94F6CFF8018081898344
:101DB0000E5F1F4FE4CF2801F2E04F0E511CF801D7
:101DC000C080D180692D70E036FC02C06FEF7FEFDC
:101DD000C6010E9409104C018201D5CFB70180E2F3
:101DE00090E00E9414102A942814190409F0B0F706
:101DF000CECFF60137FC859137FE81916F01B70197
:101E000090E00E94141051105A94F1E08F1A91083A
:101E1000BFCF843619F0893609F077C0F80137FE54
:101E20006BC060817181828193810C5F1F4FF32DA4
:101E3000FF763F2E97FF09C090958095709561952C
:101E40007F4F8F4F9F4F689437F82AE030E0A5010D
:101E50000E944410C82ECA188C2C432C36FE0CC08D
:101E6000E89440F8C91440F434FE05C032FC03C0C5
:101E7000F32DFE7E4F2E892C44FE95C0FE01EC0D05
:101E8000F11D8081803309F087C0242D297E422EE8
:101E9000842D8870582E43FC95C040FE8FC09C2C2A
:101EA000821418F42C0C922C981844FE91C0B7019F
:101EB00080E390E00E94141042FE09C088E790E0A1
:101EC00041FE02C088E590E0B7010E941410C914D9
:101ED00008F48AC0CA94D12C9FEFC91AD90ACA0C37
:101EE000DB1CF60182916F01B70190E00E94141093
:101EF000AC14BD04B1F74FCF60817181072E000C87
:101F0000880B990B0E5F1F4F92CFD32CE894D4F817
:101F10002AE030E0853739F1232D297FD22E8F3604
:101F200001F148F48835A9F0F701868197812B9655
:101F3000E2E10C94E20A803749F08837A9F7D4FE31
:101F400002C06894D2F820E130E00DC06894D4F863
:101F5000F6CF34FE03C0822F8660D82E20E132E017
:101F600002C028E030E0F801D7FE0FC06081718127
:101F7000828193810C5F1F4FA5010E944410C82EDF
:101F8000CA183D2CE89437F867CF6081718190E0E2
:101F900080E00E5F1F4FF0CF42FC02C0839478CFE9
:101FA0008394839475CF842D867809F471CFF6CF0E
:101FB000B70180E290E00E94141083948214C0F371
:101FC000512C73CF522C5818821408F46ECFF8CFCE
:101FD000842D867809F47BCF8BE241FE80E247FCBA
:101FE0008DE2B70190E071CFB70180E390E00E94ED
:101FF00014109A946CCF8FEF9FEF99CFFC0105904E
:10200000615070400110D8F7809590958E0F9F1FFA
:102010000895FC016150704001900110D8F780953F
:1020200090958E0F9F1F08950F931F93CF93DF936B
:10203000182F092FEB018B8181FD09C01FEF0FEFD6
:10204000812F902FDF91CF911F910F91089582FFE3
:1020500014C02E813F818C819D81281739073CF463
:10206000E881F981CF0101969983888310838E815D
:102070009F8101969F838E83E3CFE885F985812F29
:102080000995892BA1F3DACFFA01AA27283051F15B
:10209000203181F1E8946F936E7F6E5F7F4F8F4F99
:1020A0009F4FAF4FB1E03ED0B4E03CD0670F781FF8
:1020B000891F9A1FA11D680F791F8A1F911DA11DDD
:1020C0006A0F711D811D911DA11D20D009F4689416
:1020D0003F912AE0269F11243019305D3193DEF6BE
:1020E000CF010895462F4770405D4193B3E00FD074
:1020F000C9F7F6CF462F4F70405D4A3318F0495D5F
:1021000031FD4052419302D0A9F7EACFB4E0A69541
:102110009795879577956795BA95C9F70097610563
:10212000710508959B01AC010A2E069457954795B9
:1021300037952795BA95C9F7620F731F841F951FAE
:10214000A01D089510E0C2E6D0E004C0FE010E9488
:0E215000090C2196C336D107C9F7F894FFCFCA
:10215E00000094028000000000006501C500F2003E
:10216E00B201230101011501622564230074256467
:08217E0023006D25642300001D
:00000001FF
